:100000000C945D000C9485000C9485000C94850084
:100010000C9485000C9485000C9485000C9485004C
:100020000C9485000C9485000C9485000C9485003C
:100030000C9485000C9485000C9485000C9485002C
:100040000C941E020C9485000C94EC010C94C601D7
:100050000C9485000C9485000C9485000C9485000C
:100060000C9485000C9485000000000024002700FB
:100070002A0000000000250028002B0004040404CE
:100080000404040402020202020203030303030342
:10009000010204081020408001020408102001021F
:1000A00004081020000000080002010000030407FB
:1000B0000000000000000000C90311241FBECFEFA4
:1000C000D8E0DEBFCDBF11E0A0E0B1E0E0E4F8E0B1
:1000D00002C005900D92A232B107D9F721E0A2E249
:1000E000B1E001C01D92A83CB207E1F710E0CDE5F8
:1000F000D0E004C02197FE010E941804CC35D1073E
:10010000C9F70E9468020C941E040C940000AF9280
:10011000BF92CF92DF92EF92FF920F931F93CF93F4
:10012000DF936C017B018B01040F151FEB015E0156
:10013000AE18BF08C017D10759F06991D601ED91EB
:10014000FC910190F081E02DC6010995892B79F78A
:10015000C501DF91CF911F910F91FF90EF90DF903C
:10016000CF90BF90AF900895FC01538D448D252F03
:1001700030E0842F90E0821B930B541710F0CF9641
:10018000089501970895FC01918D828D981761F073
:10019000A28DAE0FBF2FB11D5D968C91928D9F5F8A
:1001A0009F73928F90E008958FEF9FEF0895FC0169
:1001B000918D828D981731F0828DE80FF11D858D1C
:1001C00090E008958FEF9FEF0895FC01918D228DAF
:1001D000892F90E0805C9F4F821B91098F73992734
:1001E00008958BE291E00E94E50021E0892B09F45B
:1001F00020E0822F089580E090E0892B29F00E9472
:10020000F10081110C9400000895FC01A48DA80F49
:10021000B92FB11DA35ABF4F2C91848D90E0019648
:100220008F739927848FA689B7892C93A089B18968
:100230008C91837080648C93938D848D981306C009
:100240000288F389E02D80818F7D80830895EF926D
:10025000FF920F931F93CF93DF93EC0181E0888F80
:100260009B8D8C8D98131AC0E889F989808185FF50
:1002700015C09FB7F894EE89FF896083E889F989F2
:1002800080818370806480839FBF81E090E0DF91F4
:10029000CF911F910F91FF90EF900895F62E0B8D47
:1002A00010E00F5F1F4F0F731127E02E8C8D8E1102
:1002B0000CC00FB607FCFACFE889F989808185FF69
:1002C000F5CFCE010E940501F1CFEB8DEC0FFD2F94
:1002D000F11DE35AFF4FF0829FB7F8940B8FEA8924
:1002E000FB8980818062CFCFCF93DF93EC01888D33
:1002F0008823B9F0AA89BB89E889F9898C9185FDA1
:1003000003C0808186FD0DC00FB607FCF7CF8C912E
:1003100085FFF2CF808185FFEDCFCE010E940501E0
:10032000E9CFDF91CF9108953FB7F89480912701ED
:1003300090912801A0912901B0912A0126B5A89B8E
:1003400005C02F3F19F00196A11DB11D3FBFBA2F67
:10035000A92F982F8827BC01CD01620F711D811D27
:10036000911D43E0660F771F881F991F4A95D1F7AB
:100370000895FC0101900020E9F73197AF01481B77
:10038000590BBC018BE291E00C9487001F920F92F5
:100390000FB60F9211242F933F934F935F936F9358
:1003A0007F938F939F93AF93BF93EF93FF938BE2D2
:1003B00091E00E940501FF91EF91BF91AF919F9154
:1003C0008F917F916F915F914F913F912F910F90FE
:1003D0000FBE0F901F9018951F920F920FB60F929D
:1003E00011242F938F939F93EF93FF93E0913B0101
:1003F000F0913C018081E0914101F091420182FD48
:100400001BC09081809144018F5F8F7320914501C3
:10041000821741F0E0914401F0E0E55DFE4F958FD9
:1004200080934401FF91EF919F918F912F910F90B5
:100430000FBE0F901F9018958081F4CF1F920F92DE
:100440000FB60F9211242F933F938F939F93AF93E7
:10045000BF938091230190912401A0912501B09137
:1004600026013091220126E0230F2D3758F5029600
:10047000A11DB11D2093220180932301909324019B
:10048000A0932501B0932601809127019091280126
:10049000A0912901B0912A010196A11DB11D80935F
:1004A000270190932801A0932901B0932A01BF91BD
:1004B000AF919F918F913F912F910F900FBE0F9011
:1004C0001F90189529E8230F0396A11DB11DD2CFC7
:1004D000CF93DF93CDB7DEB7A1970FB6F894DEBF09
:1004E0000FBECDBF789484B5826084BD84B5816031
:1004F00084BD85B5826085BD85B5816085BD8091EF
:100500006E00816080936E00109281008091810066
:10051000826080938100809181008160809381005E
:10052000809180008160809380008091B100846020
:100530008093B1008091B00081608093B000809181
:100540007A00846080937A0080917A008260809340
:100550007A0080917A008E7F80937A0080917A0071
:10056000806880937A001092C100E0913B01F09185
:100570003C0182E08083E0913701F09138011082E4
:10058000E0913901F0913A0187E6808310924301AE
:10059000E0913F01F091400186E08083E0913D01D0
:1005A000F0913E01808180618083E0913D01F09176
:1005B0003E01808188608083E0913D01F0913E01A1
:1005C000808180688083E0913D01F0913E018081CF
:1005D0008F7D808348E950E0FA01649184E890E0DF
:1005E000FC012491222399F030E0220F331FF901FE
:1005F000E859FF4FA591B491F901EE58FF4F2591AD
:1006000034912FB7F8943C91632B6C932FBFECEA95
:10061000F0E02491FA014491FC0194919923D9F0DE
:10062000222359F0233009F487C008F07AC0213022
:1006300009F488C0223009F489C0E92FF0E0EE0FF8
:10064000FF1FEE58FF4FA591B4918FB7F8949C917E
:10065000492B4C938FBF80E4782E9AE0892E912C01
:10066000A12CB12C00E010E070927C0080917A0007
:10067000806480937A0080917A0086FDFCCFC090E0
:100680007800D090790082E191E00E94B9010D2CB0
:10069000000CEE08FF08F7FE66C06DE28BE291E009
:1006A0000E94270122273327A9012C193D094E0951
:1006B0005F0919A2CE0181967C01CA01B901A50189
:1006C00094010E94F603605DF70162937F0121159A
:1006D00031054105510589F7E114F10419F0C7010D
:1006E0000E94B9018EE191E00E94B9010E9494013B
:1006F0006B017C010E9494016C197D098E099F0990
:10070000683E734081059105A8F30115110509F4B0
:10071000ABCF0E94F100882309F4A6CF0E9400000D
:10072000A3CF2730B1F02830D1F0243009F085CFA5
:10073000809180008F7D03C0809180008F778093AF
:1007400080007BCF84B58F7784BD77CF84B58F7DD4
:10075000FBCF8091B0008F778093B0006ECF8091F7
:10076000B0008F7DF9CFA701960119A2CE01819625
:100770007C01CA01B901A50194010E94F603605DE4
:10078000F70162937F01211531054105510589F774
:10079000A3CFEBE2F1E01382128288EE93E0A0E0B7
:1007A000B0E084839583A683B78384E091E091834E
:1007B000808385EC90E09587848784EC90E0978730
:1007C000868780EC90E0918B808B81EC90E0938B1E
:1007D000828B82EC90E0958B848B86EC90E0978BFB
:1007E000868B118E128E138E148E0895A1E21A2E0E
:1007F000AA1BBB1BFD010DC0AA1FBB1FEE1FFF1FC5
:10080000A217B307E407F50720F0A21BB30BE40B14
:10081000F50B661F771F881F991F1A9469F760955B
:100820007095809590959B01AC01BD01CF01089515
:10083000EE0FFF1F0590F491E02D0994F894FFCF7F
:100840000000000027018700B4007401E500C30028
:10085000D70068656C6C6F20776F726C64000D0A4E
:02086000000096
:00000001FF
